{
  "contractName": "Coinstreamer",
  "abi": [
    {
      "inputs": [
        {
          "internalType": "address",
          "name": "_keepersRegistry",
          "type": "address"
        }
      ],
      "stateMutability": "nonpayable",
      "type": "constructor"
    },
    {
      "inputs": [],
      "name": "keepersRegistry",
      "outputs": [
        {
          "internalType": "address",
          "name": "",
          "type": "address"
        }
      ],
      "stateMutability": "view",
      "type": "function",
      "constant": true
    },
    {
      "inputs": [],
      "name": "orderCounter",
      "outputs": [
        {
          "internalType": "uint256",
          "name": "",
          "type": "uint256"
        }
      ],
      "stateMutability": "view",
      "type": "function",
      "constant": true
    },
    {
      "inputs": [
        {
          "internalType": "uint256",
          "name": "",
          "type": "uint256"
        }
      ],
      "name": "sendInfo",
      "outputs": [
        {
          "internalType": "address",
          "name": "sender",
          "type": "address"
        },
        {
          "internalType": "address",
          "name": "recipent",
          "type": "address"
        },
        {
          "internalType": "address",
          "name": "tokenAddr",
          "type": "address"
        },
        {
          "internalType": "uint256",
          "name": "amount",
          "type": "uint256"
        },
        {
          "internalType": "uint256",
          "name": "duration",
          "type": "uint256"
        },
        {
          "internalType": "uint256",
          "name": "streams",
          "type": "uint256"
        },
        {
          "internalType": "uint256",
          "name": "streamCounter",
          "type": "uint256"
        },
        {
          "internalType": "uint256",
          "name": "lastTimeStamp",
          "type": "uint256"
        },
        {
          "internalType": "contract IERC20",
          "name": "token",
          "type": "address"
        }
      ],
      "stateMutability": "view",
      "type": "function",
      "constant": true
    },
    {
      "inputs": [
        {
          "internalType": "address",
          "name": "_recipent",
          "type": "address"
        },
        {
          "internalType": "uint256",
          "name": "_amount",
          "type": "uint256"
        },
        {
          "internalType": "uint256",
          "name": "_duration",
          "type": "uint256"
        },
        {
          "internalType": "uint256",
          "name": "_streams",
          "type": "uint256"
        }
      ],
      "name": "getBNB",
      "outputs": [],
      "stateMutability": "payable",
      "type": "function",
      "payable": true
    },
    {
      "inputs": [
        {
          "internalType": "address",
          "name": "_recipent",
          "type": "address"
        },
        {
          "internalType": "address",
          "name": "_tokenAddr",
          "type": "address"
        },
        {
          "internalType": "uint256",
          "name": "_amount",
          "type": "uint256"
        },
        {
          "internalType": "uint256",
          "name": "_duration",
          "type": "uint256"
        },
        {
          "internalType": "uint256",
          "name": "_streams",
          "type": "uint256"
        }
      ],
      "name": "getToken",
      "outputs": [],
      "stateMutability": "nonpayable",
      "type": "function"
    },
    {
      "inputs": [
        {
          "internalType": "bytes",
          "name": "",
          "type": "bytes"
        }
      ],
      "name": "checkUpkeep",
      "outputs": [
        {
          "internalType": "bool",
          "name": "upkeepNeeded",
          "type": "bool"
        },
        {
          "internalType": "bytes",
          "name": "",
          "type": "bytes"
        }
      ],
      "stateMutability": "view",
      "type": "function",
      "constant": true
    },
    {
      "inputs": [
        {
          "internalType": "bytes",
          "name": "",
          "type": "bytes"
        }
      ],
      "name": "performUpkeep",
      "outputs": [],
      "stateMutability": "nonpayable",
      "type": "function"
    }
  ],
  "bytecode": "0x60806040526000600160006101000a81548173ffffffffffffffffffffffffffffffffffffffff021916908373ffffffffffffffffffffffffffffffffffffffff1602179055503480156200005357600080fd5b506040516200153b3803806200153b83398181016040528101906200007991906200012b565b80600160006101000a81548173ffffffffffffffffffffffffffffffffffffffff021916908373ffffffffffffffffffffffffffffffffffffffff160217905550506200015d565b600080fd5b600073ffffffffffffffffffffffffffffffffffffffff82169050919050565b6000620000f382620000c6565b9050919050565b6200010581620000e6565b81146200011157600080fd5b50565b6000815190506200012581620000fa565b92915050565b600060208284031215620001445762000143620000c1565b5b6000620001548482850162000114565b91505092915050565b6113ce806200016d6000396000f3fe6080604052600436106100705760003560e01c806379ebdeb61161004e57806379ebdeb6146101055780639d03497914610130578063b789bf5214610175578063f5464fe4146101a057610070565b80634585e33b1461007557806348be70091461009e5780636e04ff0d146100c7575b600080fd5b34801561008157600080fd5b5061009c60048036038101906100979190610cce565b6101bc565b005b3480156100aa57600080fd5b506100c560048036038101906100c09190610daf565b610322565b005b3480156100d357600080fd5b506100ee60048036038101906100e99190610cce565b6105c9565b6040516100fc929190610ed5565b60405180910390f35b34801561011157600080fd5b5061011a61068a565b6040516101279190610f14565b60405180910390f35b34801561013c57600080fd5b5061015760048036038101906101529190610f2f565b6106b0565b60405161016c99989796959493929190610fca565b60405180910390f35b34801561018157600080fd5b5061018a61077e565b6040516101979190611057565b60405180910390f35b6101ba60048036038101906101b59190611072565b610784565b005b600160009054906101000a900473ffffffffffffffffffffffffffffffffffffffff1673ffffffffffffffffffffffffffffffffffffffff163373ffffffffffffffffffffffffffffffffffffffff161461024c576040517f08c379a00000000000000000000000000000000000000000000000000000000081526004016102439061115c565b60405180910390fd5b600080600090505b60005481101561031c576002600082815260200190815260200160002060050154600260008381526020019081526020016000206004015461029691906111da565b6002600083815260200190815260200160002060070154426102b8919061120b565b1180156102f0575060026000828152602001908152602001600020600501546002600083815260200190815260200160002060060154105b9150600115158215150361030857610307816109e9565b5b600181610315919061123f565b9050610254565b50505050565b60006040518061012001604052803373ffffffffffffffffffffffffffffffffffffffff1681526020018773ffffffffffffffffffffffffffffffffffffffff1681526020018673ffffffffffffffffffffffffffffffffffffffff168152602001858152602001848152602001838152602001600081526020014281526020018673ffffffffffffffffffffffffffffffffffffffff16815250905080610100015173ffffffffffffffffffffffffffffffffffffffff166323b872dd3330876040518463ffffffff1660e01b815260040161040193929190611273565b6020604051808303816000875af1158015610420573d6000803e3d6000fd5b505050506040513d601f19601f8201168201806040525081019061044491906112d6565b5080600260008054815260200190815260200160002060008201518160000160006101000a81548173ffffffffffffffffffffffffffffffffffffffff021916908373ffffffffffffffffffffffffffffffffffffffff16021790555060208201518160010160006101000a81548173ffffffffffffffffffffffffffffffffffffffff021916908373ffffffffffffffffffffffffffffffffffffffff16021790555060408201518160020160006101000a81548173ffffffffffffffffffffffffffffffffffffffff021916908373ffffffffffffffffffffffffffffffffffffffff160217905550606082015181600301556080820151816004015560a0820151816005015560c0820151816006015560e082015181600701556101008201518160080160006101000a81548173ffffffffffffffffffffffffffffffffffffffff021916908373ffffffffffffffffffffffffffffffffffffffff16021790555090505060016000546105bb919061123f565b600081905550505050505050565b6000606060005b600054811015610682576002600082815260200190815260200160002060050154600260008381526020019081526020016000206004015461061291906111da565b600260008381526020019081526020016000206007015442610634919061120b565b11801561066c575060026000828152602001908152602001600020600501546002600083815260200190815260200160002060060154105b925060018161067b919061123f565b90506105d0565b509250929050565b600160009054906101000a900473ffffffffffffffffffffffffffffffffffffffff1681565b60026020528060005260406000206000915090508060000160009054906101000a900473ffffffffffffffffffffffffffffffffffffffff16908060010160009054906101000a900473ffffffffffffffffffffffffffffffffffffffff16908060020160009054906101000a900473ffffffffffffffffffffffffffffffffffffffff16908060030154908060040154908060050154908060060154908060070154908060080160009054906101000a900473ffffffffffffffffffffffffffffffffffffffff16905089565b60005481565b823410156107c7576040517f08c379a00000000000000000000000000000000000000000000000000000000081526004016107be9061134f565b60405180910390fd5b60006040518061012001604052803373ffffffffffffffffffffffffffffffffffffffff1681526020018673ffffffffffffffffffffffffffffffffffffffff168152602001600073ffffffffffffffffffffffffffffffffffffffff16815260200185815260200184815260200183815260200160008152602001428152602001600073ffffffffffffffffffffffffffffffffffffffff16815250905080600260008054815260200190815260200160002060008201518160000160006101000a81548173ffffffffffffffffffffffffffffffffffffffff021916908373ffffffffffffffffffffffffffffffffffffffff16021790555060208201518160010160006101000a81548173ffffffffffffffffffffffffffffffffffffffff021916908373ffffffffffffffffffffffffffffffffffffffff16021790555060408201518160020160006101000a81548173ffffffffffffffffffffffffffffffffffffffff021916908373ffffffffffffffffffffffffffffffffffffffff160217905550606082015181600301556080820151816004015560a0820151816005015560c0820151816006015560e082015181600701556101008201518160080160006101000a81548173ffffffffffffffffffffffffffffffffffffffff021916908373ffffffffffffffffffffffffffffffffffffffff16021790555090505060016000546109dc919061123f565b6000819055505050505050565b600060026000838152602001908152602001600020600501546002600084815260200190815260200160002060030154610a2391906111da565b9050600073ffffffffffffffffffffffffffffffffffffffff166002600084815260200190815260200160002060020160009054906101000a900473ffffffffffffffffffffffffffffffffffffffff1673ffffffffffffffffffffffffffffffffffffffff1603610b11576002600083815260200190815260200160002060010160009054906101000a900473ffffffffffffffffffffffffffffffffffffffff1673ffffffffffffffffffffffffffffffffffffffff166108fc829081150290604051600060405180830381858888f19350505050158015610b0b573d6000803e3d6000fd5b50610c03565b60006002600084815260200190815260200160002060020160009054906101000a900473ffffffffffffffffffffffffffffffffffffffff1690508073ffffffffffffffffffffffffffffffffffffffff1663a9059cbb6002600086815260200190815260200160002060010160009054906101000a900473ffffffffffffffffffffffffffffffffffffffff16846040518363ffffffff1660e01b8152600401610bbd92919061136f565b6020604051808303816000875af1158015610bdc573d6000803e3d6000fd5b505050506040513d601f19601f82011682018060405250810190610c0091906112d6565b50505b42600260008481526020019081526020016000206007018190555060016002600084815260200190815260200160002060060154610c41919061123f565b60026000848152602001908152602001600020600601819055505050565b600080fd5b600080fd5b600080fd5b600080fd5b600080fd5b60008083601f840112610c8e57610c8d610c69565b5b8235905067ffffffffffffffff811115610cab57610caa610c6e565b5b602083019150836001820283011115610cc757610cc6610c73565b5b9250929050565b60008060208385031215610ce557610ce4610c5f565b5b600083013567ffffffffffffffff811115610d0357610d02610c64565b5b610d0f85828601610c78565b92509250509250929050565b600073ffffffffffffffffffffffffffffffffffffffff82169050919050565b6000610d4682610d1b565b9050919050565b610d5681610d3b565b8114610d6157600080fd5b50565b600081359050610d7381610d4d565b92915050565b6000819050919050565b610d8c81610d79565b8114610d9757600080fd5b50565b600081359050610da981610d83565b92915050565b600080600080600060a08688031215610dcb57610dca610c5f565b5b6000610dd988828901610d64565b9550506020610dea88828901610d64565b9450506040610dfb88828901610d9a565b9350506060610e0c88828901610d9a565b9250506080610e1d88828901610d9a565b9150509295509295909350565b60008115159050919050565b610e3f81610e2a565b82525050565b600081519050919050565b600082825260208201905092915050565b60005b83811015610e7f578082015181840152602081019050610e64565b60008484015250505050565b6000601f19601f8301169050919050565b6000610ea782610e45565b610eb18185610e50565b9350610ec1818560208601610e61565b610eca81610e8b565b840191505092915050565b6000604082019050610eea6000830185610e36565b8181036020830152610efc8184610e9c565b90509392505050565b610f0e81610d3b565b82525050565b6000602082019050610f296000830184610f05565b92915050565b600060208284031215610f4557610f44610c5f565b5b6000610f5384828501610d9a565b91505092915050565b610f6581610d79565b82525050565b6000819050919050565b6000610f90610f8b610f8684610d1b565b610f6b565b610d1b565b9050919050565b6000610fa282610f75565b9050919050565b6000610fb482610f97565b9050919050565b610fc481610fa9565b82525050565b600061012082019050610fe0600083018c610f05565b610fed602083018b610f05565b610ffa604083018a610f05565b6110076060830189610f5c565b6110146080830188610f5c565b61102160a0830187610f5c565b61102e60c0830186610f5c565b61103b60e0830185610f5c565b611049610100830184610fbb565b9a9950505050505050505050565b600060208201905061106c6000830184610f5c565b92915050565b6000806000806080858703121561108c5761108b610c5f565b5b600061109a87828801610d64565b94505060206110ab87828801610d9a565b93505060406110bc87828801610d9a565b92505060606110cd87828801610d9a565b91505092959194509250565b600082825260208201905092915050565b7f4f776e61626c653a2063616c6c6572206973206e6f74206b656570657273207260008201527f6567697374727900000000000000000000000000000000000000000000000000602082015250565b60006111466027836110d9565b9150611151826110ea565b604082019050919050565b6000602082019050818103600083015261117581611139565b9050919050565b7f4e487b7100000000000000000000000000000000000000000000000000000000600052601260045260246000fd5b7f4e487b7100000000000000000000000000000000000000000000000000000000600052601160045260246000fd5b60006111e582610d79565b91506111f083610d79565b925082611200576111ff61117c565b5b828204905092915050565b600061121682610d79565b915061122183610d79565b9250828203905081811115611239576112386111ab565b5b92915050565b600061124a82610d79565b915061125583610d79565b925082820190508082111561126d5761126c6111ab565b5b92915050565b60006060820190506112886000830186610f05565b6112956020830185610f05565b6112a26040830184610f5c565b949350505050565b6112b381610e2a565b81146112be57600080fd5b50565b6000815190506112d0816112aa565b92915050565b6000602082840312156112ec576112eb610c5f565b5b60006112fa848285016112c1565b91505092915050565b7f496e76616c696420616d6f756e74210000000000000000000000000000000000600082015250565b6000611339600f836110d9565b915061134482611303565b602082019050919050565b600060208201905081810360008301526113688161132c565b9050919050565b60006040820190506113846000830185610f05565b6113916020830184610f5c565b939250505056fea26469706673582212202eea935606ac58466030e5c1193a215f39c4f3c9f516c79f6354fadb4f42dc6464736f6c63430008110033",
  "immutableReferences": {},
  "source": "// SPDX-License-Identifier: UNLICENSED\npragma solidity ^0.8.0;\n\nimport \"@openzeppelin/contracts/token/ERC721/extensions/ERC721Enumerable.sol\";\nimport \"@openzeppelin/contracts/token/ERC20/IERC20.sol\";\nimport \"@openzeppelin/contracts/access/Ownable.sol\";\nimport \"@chainlink/contracts/src/v0.8/KeeperCompatible.sol\";\n\ncontract Coinstreamer is KeeperCompatibleInterface {\n\n\tuint256 public orderCounter;\n  \taddress public keepersRegistry = address(0);\n\n\tstruct SendInfo {\n\t\taddress sender;\n\t\taddress recipent;\n\t\taddress tokenAddr;\n\t\tuint256 amount;\n\t\tuint256 duration;\n\t\tuint256 streams;\n\t\tuint256 streamCounter;\n\t\tuint256 lastTimeStamp;\n\t\tIERC20 token;\n\t}\n\t\n\tmapping(uint256 => SendInfo) public sendInfo;\n\n\n\tconstructor(address _keepersRegistry) {\n\t\tkeepersRegistry = _keepersRegistry;\n\t}\n\n// contract.getBNB({value: amount})\n\tfunction getBNB(address _recipent, uint256 _amount, uint256 _duration, uint256 _streams) external payable {\n\t\trequire(msg.value >= _amount, \"Invalid amount!\");\n\n\t\tSendInfo memory tempSendInfo = SendInfo({\n\t\t\tsender: msg.sender,\n\t\t\trecipent: _recipent,\n\t\t\ttokenAddr: address(0),\n\t\t\tamount: _amount,\n\t\t\tduration: _duration,\n\t\t\tstreams: _streams,\n\t\t\tstreamCounter: 0,\n\t\t\tlastTimeStamp: block.timestamp,\n\t\t\ttoken: IERC20(address(0))\n\t\t});\n\n\t\tsendInfo[orderCounter] = tempSendInfo;\n\n\t\torderCounter = orderCounter + 1;\n\t}\n\n\tfunction getToken(address _recipent, address _tokenAddr, uint256 _amount, uint256 _duration, uint256 _streams) external {\n\t\tSendInfo memory tempSendInfo = SendInfo({\n\t\t\tsender: msg.sender,\n\t\t\trecipent: _recipent,\n\t\t\ttokenAddr: _tokenAddr,\n\t\t\tamount: _amount,\n\t\t\tduration: _duration,\n\t\t\tstreams: _streams,\n\t\t\tstreamCounter: 0,\n\t\t\tlastTimeStamp: block.timestamp,\n\t\t\ttoken: IERC20(_tokenAddr)\n\t\t});\n\t\t\n\n\t\ttempSendInfo.token.transferFrom(msg.sender, address(this), _amount);\n\n\t\tsendInfo[orderCounter] = tempSendInfo;\n\t\torderCounter = orderCounter + 1;\n\t}\n\n\tfunction sendCoin(uint256 index) internal {\n\t\tuint256 _amount = sendInfo[index].amount / sendInfo[index].streams;\n\t\tif(sendInfo[index].tokenAddr == address(0)) {\n\t\t\tpayable(sendInfo[index].recipent).transfer(_amount);\n\t\t}\n\t\telse {\n\t\t\tIERC20 tempToken;\n\t\t\ttempToken = IERC20(sendInfo[index].tokenAddr);\n\t\t\ttempToken.transfer(sendInfo[index].recipent, _amount);\n\t\t}\n\t\tsendInfo[index].lastTimeStamp = block.timestamp;\n\t\tsendInfo[index].streamCounter = sendInfo[index].streamCounter + 1;\n\t}\n\n\tmodifier onlyKeepers() {\n\t\trequire(msg.sender == keepersRegistry, \"Ownable: caller is not keepers registry\");\n\t\t_;\n\t}\n\n\tfunction checkUpkeep(bytes calldata /* checkData */) external view override returns (bool upkeepNeeded, bytes memory /* performData */) {\n\t\tfor(uint256 index = 0; index < orderCounter; index = index +1) {\n\t\t\tupkeepNeeded = ((block.timestamp - sendInfo[index].lastTimeStamp) > (sendInfo[index].duration / sendInfo[index].streams)) && (sendInfo[index].streamCounter < sendInfo[index].streams);\n\t\t}\n\t\t\t// We don't use the checkData in this example. The checkData is defined when the Upkeep was registered.\n\t}\n\n\tfunction performUpkeep(bytes calldata /* performData */) external override onlyKeepers {\n\t\t\t// We don't use the performData in this example. The performData is generated by the Keeper's call to your checkUpkeep function\n\t\tbool performCondition;\n\t\tfor(uint256 index = 0; index < orderCounter; index = index +1) {\n\t\t\tperformCondition = ((block.timestamp - sendInfo[index].lastTimeStamp) > (sendInfo[index].duration / sendInfo[index].streams)) && (sendInfo[index].streamCounter < sendInfo[index].streams);\n\t\t\tif(performCondition == true) sendCoin(index);\n\t\t}\n\t}\n}",
  "sourcePath": "E:\\Contracts\\MONSTA_chainlinkKeeper\\contracts\\Coinstreamer.sol",
  "compiler": {
    "name": "solc",
    "version": "0.8.17+commit.8df45f5f.Emscripten.clang"
  },
  "schemaVersion": "3.4.4",
  "updatedAt": "2022-10-27T02:50:19.504Z",
  "networkType": "ethereum",
  "devdoc": {
    "kind": "dev",
    "methods": {},
    "version": 1
  },
  "userdoc": {
    "kind": "user",
    "methods": {},
    "version": 1
  }
}